:1000000012C019C018C017C016C015C014C013C044
:1000100012C011C010C00FC00EC00DC00CC00BC06C
:100020000AC009C008C011241FBECFE5D4E0DEBF5E
:10003000CDBF47D04CC0E4CF8FEF87BB81BB83E0FF
:1000400088BB2FE382E49FE0215080409040E1F79D
:1000500000C000008CE388BB2FE382E49FE02150C6
:1000600080409040E1F700C00000089523B383B3BF
:10007000827090E0422F417050E020FF12C0823029
:100080009105E1F418BA2FE382E49FE0215080400B
:100090009040E1F700C00000CFDF089588E088BB02
:1000A0000895452B69F48230910519F480E288BBEC
:1000B0000895892B29F488E288BB0895892B71F370
:1000C00008958FEF87BB14BA81BBD0DFFECFF894C1
:0200D000FFCF60
:00000001FF
